{
  "contractName": "CryptoBoard",
  "abi": [
    {
      "constant": true,
      "inputs": [
        {
          "name": "",
          "type": "uint256"
        }
      ],
      "name": "messages",
      "outputs": [
        {
          "name": "writerAddress",
          "type": "address"
        },
        {
          "name": "nickName",
          "type": "string"
        },
        {
          "name": "message",
          "type": "string"
        },
        {
          "name": "postTime",
          "type": "uint256"
        }
      ],
      "payable": false,
      "stateMutability": "view",
      "type": "function"
    },
    {
      "constant": true,
      "inputs": [
        {
          "name": "_index",
          "type": "uint256"
        }
      ],
      "name": "getWriterAccount",
      "outputs": [
        {
          "name": "",
          "type": "address"
        }
      ],
      "payable": false,
      "stateMutability": "view",
      "type": "function"
    },
    {
      "constant": true,
      "inputs": [],
      "name": "getMessageCount",
      "outputs": [
        {
          "name": "",
          "type": "uint256"
        }
      ],
      "payable": false,
      "stateMutability": "view",
      "type": "function"
    },
    {
      "constant": false,
      "inputs": [
        {
          "name": "_nickName",
          "type": "string"
        },
        {
          "name": "_message",
          "type": "string"
        }
      ],
      "name": "postMessage",
      "outputs": [],
      "payable": false,
      "stateMutability": "nonpayable",
      "type": "function"
    },
    {
      "constant": true,
      "inputs": [],
      "name": "getMessages",
      "outputs": [
        {
          "components": [
            {
              "name": "writerAddress",
              "type": "address"
            },
            {
              "name": "nickName",
              "type": "string"
            },
            {
              "name": "message",
              "type": "string"
            },
            {
              "name": "postTime",
              "type": "uint256"
            }
          ],
          "name": "",
          "type": "tuple[]"
        }
      ],
      "payable": false,
      "stateMutability": "view",
      "type": "function"
    },
    {
      "constant": true,
      "inputs": [
        {
          "name": "_index",
          "type": "uint256"
        }
      ],
      "name": "getMessage",
      "outputs": [
        {
          "name": "",
          "type": "address"
        },
        {
          "name": "",
          "type": "string"
        },
        {
          "name": "",
          "type": "string"
        },
        {
          "name": "",
          "type": "uint256"
        }
      ],
      "payable": false,
      "stateMutability": "view",
      "type": "function"
    },
    {
      "constant": true,
      "inputs": [],
      "name": "owner",
      "outputs": [
        {
          "name": "",
          "type": "address"
        }
      ],
      "payable": false,
      "stateMutability": "view",
      "type": "function"
    },
    {
      "constant": true,
      "inputs": [],
      "name": "getWriterCount",
      "outputs": [
        {
          "name": "",
          "type": "uint256"
        }
      ],
      "payable": false,
      "stateMutability": "view",
      "type": "function"
    },
    {
      "constant": true,
      "inputs": [
        {
          "name": "",
          "type": "uint256"
        }
      ],
      "name": "writerAccounts",
      "outputs": [
        {
          "name": "",
          "type": "address"
        }
      ],
      "payable": false,
      "stateMutability": "view",
      "type": "function"
    },
    {
      "constant": false,
      "inputs": [
        {
          "name": "newOwner",
          "type": "address"
        }
      ],
      "name": "transferOwnership",
      "outputs": [],
      "payable": false,
      "stateMutability": "nonpayable",
      "type": "function"
    },
    {
      "constant": true,
      "inputs": [],
      "name": "getWriterAccounts",
      "outputs": [
        {
          "name": "",
          "type": "address[]"
        }
      ],
      "payable": false,
      "stateMutability": "view",
      "type": "function"
    },
    {
      "inputs": [],
      "payable": false,
      "stateMutability": "nonpayable",
      "type": "constructor"
    },
    {
      "anonymous": false,
      "inputs": [
        {
          "indexed": false,
          "name": "writerAddress",
          "type": "address"
        },
        {
          "indexed": false,
          "name": "nickName",
          "type": "string"
        },
        {
          "indexed": false,
          "name": "message",
          "type": "string"
        },
        {
          "indexed": false,
          "name": "postTime",
          "type": "uint256"
        }
      ],
      "name": "MessageInfo",
      "type": "event"
    },
    {
      "anonymous": false,
      "inputs": [
        {
          "indexed": true,
          "name": "previousOwner",
          "type": "address"
        },
        {
          "indexed": true,
          "name": "newOwner",
          "type": "address"
        }
      ],
      "name": "OwnershipTransferred",
      "type": "event"
    }
  ],
  "bytecode": "0x6060604052341561000f57600080fd5b336000806101000a81548173ffffffffffffffffffffffffffffffffffffffff021916908373ffffffffffffffffffffffffffffffffffffffff160217905550336000806101000a81548173ffffffffffffffffffffffffffffffffffffffff021916908373ffffffffffffffffffffffffffffffffffffffff1602179055506112528061009e6000396000f3006060604052600436106100af576000357c0100000000000000000000000000000000000000000000000000000000900463ffffffff1680630d80fefd146100b45780631ed0382014610230578063319339161461029357806349819eba146102bc5780635ff6cbf31461035c57806386f79edb146103c15780638da5cb5b146105035780638ecc8b6814610558578063be655cee14610581578063f2fde38b146105e4578063f41aabf31461061d575b600080fd5b34156100bf57600080fd5b6100d56004808035906020019091905050610687565b604051808573ffffffffffffffffffffffffffffffffffffffff1673ffffffffffffffffffffffffffffffffffffffff168152602001806020018060200184815260200183810383528681815460018160011615610100020316600290048152602001915080546001816001161561010002031660029004801561019a5780601f1061016f5761010080835404028352916020019161019a565b820191906000526020600020905b81548152906001019060200180831161017d57829003601f168201915b505083810382528581815460018160011615610100020316600290048152602001915080546001816001161561010002031660029004801561021d5780601f106101f25761010080835404028352916020019161021d565b820191906000526020600020905b81548152906001019060200180831161020057829003601f168201915b5050965050505050505060405180910390f35b341561023b57600080fd5b61025160048080359060200190919050506106e4565b604051808273ffffffffffffffffffffffffffffffffffffffff1673ffffffffffffffffffffffffffffffffffffffff16815260200191505060405180910390f35b341561029e57600080fd5b6102a6610728565b6040518082815260200191505060405180910390f35b34156102c757600080fd5b61035a600480803590602001908201803590602001908080601f0160208091040260200160405190810160405280939291908181526020018383808284378201915050505050509190803590602001908201803590602001908080601f01602080910402602001604051908101604052809392919081815260200183838082843782019150505050505091905050610735565b005b341561036757600080fd5b61036f6109d0565b60405180806020018281038252838181518152602001915080516000925b818410156103b0578284906020019060200201518152602001926001019261038d565b925050509250505060405180910390f35b34156103cc57600080fd5b6103e26004808035906020019091905050610bda565b604051808573ffffffffffffffffffffffffffffffffffffffff1673ffffffffffffffffffffffffffffffffffffffff1681526020018060200180602001848152602001838103835286818151815260200191508051906020019080838360005b8381101561045e578082015181840152602081019050610443565b50505050905090810190601f16801561048b5780820380516001836020036101000a031916815260200191505b50838103825285818151815260200191508051906020019080838360005b838110156104c45780820151818401526020810190506104a9565b50505050905090810190601f1680156104f15780820380516001836020036101000a031916815260200191505b50965050505050505060405180910390f35b341561050e57600080fd5b610516610dd7565b604051808273ffffffffffffffffffffffffffffffffffffffff1673ffffffffffffffffffffffffffffffffffffffff16815260200191505060405180910390f35b341561056357600080fd5b61056b610dfc565b6040518082815260200191505060405180910390f35b341561058c57600080fd5b6105a26004808035906020019091905050610e09565b604051808273ffffffffffffffffffffffffffffffffffffffff1673ffffffffffffffffffffffffffffffffffffffff16815260200191505060405180910390f35b34156105ef57600080fd5b61061b600480803573ffffffffffffffffffffffffffffffffffffffff16906020019091905050610e48565b005b341561062857600080fd5b610630610f9d565b6040518080602001828103825283818151815260200191508051906020019060200280838360005b83811015610673578082015181840152602081019050610658565b505050509050019250505060405180910390f35b60028181548110151561069657fe5b90600052602060002090600402016000915090508060000160009054906101000a900473ffffffffffffffffffffffffffffffffffffffff1690806001019080600201908060030154905084565b60006001828154811015156106f557fe5b906000526020600020900160009054906101000a900473ffffffffffffffffffffffffffffffffffffffff169050919050565b6000600280549050905090565b600280548060010182816107499190611031565b916000526020600020906004020160006080604051908101604052803373ffffffffffffffffffffffffffffffffffffffff16815260200186815260200185815260200142815250909190915060008201518160000160006101000a81548173ffffffffffffffffffffffffffffffffffffffff021916908373ffffffffffffffffffffffffffffffffffffffff16021790555060208201518160010190805190602001906107f9929190611063565b506040820151816002019080519060200190610816929190611063565b50606082015181600301555050506001805480600101828161083891906110e3565b9160005260206000209001600033909190916101000a81548173ffffffffffffffffffffffffffffffffffffffff021916908373ffffffffffffffffffffffffffffffffffffffff160217905550507f74a91d5d6fc19e986aaeff759f314aab02c4061944b6ba3ad52c2775bf38e77433838342604051808573ffffffffffffffffffffffffffffffffffffffff1673ffffffffffffffffffffffffffffffffffffffff1681526020018060200180602001848152602001838103835286818151815260200191508051906020019080838360005b8381101561092857808201518184015260208101905061090d565b50505050905090810190601f1680156109555780820380516001836020036101000a031916815260200191505b50838103825285818151815260200191508051906020019080838360005b8381101561098e578082015181840152602081019050610973565b50505050905090810190601f1680156109bb5780820380516001836020036101000a031916815260200191505b50965050505050505060405180910390a15050565b6109d861110f565b6002805480602002602001604051908101604052809291908181526020016000905b82821015610bd15783829060005260206000209060040201608060405190810160405290816000820160009054906101000a900473ffffffffffffffffffffffffffffffffffffffff1673ffffffffffffffffffffffffffffffffffffffff1673ffffffffffffffffffffffffffffffffffffffff168152602001600182018054600181600116156101000203166002900480601f016020809104026020016040519081016040528092919081815260200182805460018160011615610100020316600290048015610b0d5780601f10610ae257610100808354040283529160200191610b0d565b820191906000526020600020905b815481529060010190602001808311610af057829003601f168201915b50505050508152602001600282018054600181600116156101000203166002900480601f016020809104026020016040519081016040528092919081815260200182805460018160011615610100020316600290048015610baf5780601f10610b8457610100808354040283529160200191610baf565b820191906000526020600020905b815481529060010190602001808311610b9257829003601f168201915b50505050508152602001600382015481525050815260200190600101906109fa565b50505050905090565b6000610be4611123565b610bec611123565b6000600285815481101515610bfd57fe5b906000526020600020906004020160000160009054906101000a900473ffffffffffffffffffffffffffffffffffffffff16600286815481101515610c3e57fe5b9060005260206000209060040201600101600287815481101515610c5e57fe5b9060005260206000209060040201600201600288815481101515610c7e57fe5b906000526020600020906004020160030154828054600181600116156101000203166002900480601f016020809104026020016040519081016040528092919081815260200182805460018160011615610100020316600290048015610d255780601f10610cfa57610100808354040283529160200191610d25565b820191906000526020600020905b815481529060010190602001808311610d0857829003601f168201915b50505050509250818054600181600116156101000203166002900480601f016020809104026020016040519081016040528092919081815260200182805460018160011615610100020316600290048015610dc15780601f10610d9657610100808354040283529160200191610dc1565b820191906000526020600020905b815481529060010190602001808311610da457829003601f168201915b5050505050915093509350935093509193509193565b6000809054906101000a900473ffffffffffffffffffffffffffffffffffffffff1681565b6000600180549050905090565b600181815481101515610e1857fe5b90600052602060002090016000915054906101000a900473ffffffffffffffffffffffffffffffffffffffff1681565b6000809054906101000a900473ffffffffffffffffffffffffffffffffffffffff1673ffffffffffffffffffffffffffffffffffffffff163373ffffffffffffffffffffffffffffffffffffffff16141515610ea357600080fd5b600073ffffffffffffffffffffffffffffffffffffffff168173ffffffffffffffffffffffffffffffffffffffff1614151515610edf57600080fd5b8073ffffffffffffffffffffffffffffffffffffffff166000809054906101000a900473ffffffffffffffffffffffffffffffffffffffff1673ffffffffffffffffffffffffffffffffffffffff167f8be0079c531659141344cd1fd0a4f28419497f9722a3daafe3b4186f6b6457e060405160405180910390a3806000806101000a81548173ffffffffffffffffffffffffffffffffffffffff021916908373ffffffffffffffffffffffffffffffffffffffff16021790555050565b610fa5611137565b600180548060200260200160405190810160405280929190818152602001828054801561102757602002820191906000526020600020905b8160009054906101000a900473ffffffffffffffffffffffffffffffffffffffff1673ffffffffffffffffffffffffffffffffffffffff1681526020019060010190808311610fdd575b5050505050905090565b81548183558181151161105e5760040281600402836000526020600020918201910161105d919061114b565b5b505050565b828054600181600116156101000203166002900490600052602060002090601f016020900481019282601f106110a457805160ff19168380011785556110d2565b828001600101855582156110d2579182015b828111156110d15782518255916020019190600101906110b6565b5b5090506110df91906111b9565b5090565b81548183558181151161110a5781836000526020600020918201910161110991906111b9565b5b505050565b602060405190810160405280600081525090565b602060405190810160405280600081525090565b602060405190810160405280600081525090565b6111b691905b808211156111b257600080820160006101000a81549073ffffffffffffffffffffffffffffffffffffffff021916905560018201600061119191906111de565b6002820160006111a191906111de565b600382016000905550600401611151565b5090565b90565b6111db91905b808211156111d75760008160009055506001016111bf565b5090565b90565b50805460018160011615610100020316600290046000825580601f106112045750611223565b601f01602090049060005260206000209081019061122291906111b9565b5b505600a165627a7a72305820dd6d0ad1dedd64fea2b752977994f7f06ac3d66f837ed816dcdd18b71570a3730029",
  "source": "pragma solidity ^0.4.18;\nimport \"zeppelin-solidity/contracts/ownership/Ownable.sol\";\n\ncontract CryptoBoard is Ownable{\n    struct Message {\n        address writerAddress;\n        string nickName;\n        string message;\n        uint256 postTime;\n    }\n\n    address[] public writerAccounts;\n    Message[] public messages;\n    \n    function CryptoBoard() public {\n        owner = msg.sender;\n    }\n\n    event MessageInfo(\n        address writerAddress,\n        string nickName,\n        string message,\n        uint256 postTime\n    );\n\n    function postMessage(string _nickName, string _message) public {\n        messages.push(Message(msg.sender, _nickName, _message, now));\n        writerAccounts.push(msg.sender);\n        MessageInfo(msg.sender, _nickName, _message, now);\n    }\n    function getWriterAccounts() view public returns(address[]) {\n        return writerAccounts;\n    }\n    function getWriterAccount(uint256 _index) view public returns(address) {\n        return writerAccounts[_index];\n    }\n    function getWriterCount() view public returns(uint256) {\n        return writerAccounts.length;\n    }\n    function getMessage(uint256 _index) view public returns(address, string, string, uint256) {\n        return (messages[_index].writerAddress, messages[_index].nickName, messages[_index].message, messages[_index].postTime);\n    }\n    function getMessages() view public returns(Message[]) {\n        return messages;\n    }\n\n    function getMessageCount() view public returns (uint) {\n        return messages.length;\n    }\n}",
  "sourcePath": "/Users/Masaki/workplace/CryptoBoard/contracts/CryptoBoard.sol",
  "compiler": {
    "name": "solc",
    "version": "0.4.18+commit.9cf6e910.Emscripten.clang"
  },
  "schemaVersion": "1.0.1",
  "updatedAt": "2018-04-21T13:31:39.215Z"
}